:020000040800F2
:10000000C865002061020008334B000889440008DD
:10001000314B0008F7040008855600080000000076
:10002000000000000000000000000000A101000826
:10003000B90F000800000000FD010008F54B0008A2
:100040007B0200087B0200087B0200087B0200089C
:100050007B0200087B0200087B0200087B0200088C
:100060007B0200087B0200087B020008BD0D00082F
:10007000C90D0008D50D0008E10D0008ED0D0008C0
:100080007B0200087B0200087B0200081D050008B7
:10009000F904000805050008110500087B020008A6
:1000A0007B020008C14C00087B0200087B020008AC
:1000B0007B0200087B0200087B0200087B0200082C
:1000C0007B0200087B0200087B0200087B0200081C
:1000D0007B020008D15500087B020008E9550008A2
:1000E0007B0200087B0200087B0200087B020008FC
:1000F0007B020008D94C00087B020008F90D0008BB
:100100007B0200087B020008CD4C00087B0200083F
:100110001D520008355200087B0200087B020008CF
:100120007B020008050E0008110E00087B02000883
:100130007B0200087B0200087B0200084D050008D6
:100140002905000835050008410500087B02000864
:100150007B0200081D0E0008290E00080156000849
:100160007B0200087B0200087B0200087B0200087B
:100170007B0200087B0200087B02000800000000F0
:100180007B0200087B020008DFF810D000F076F94F
:1001900000480047F57C0008AFF30080C8650020E8
:1001A0002C4B19680868B0E8F04F80F30988BFF35A
:1001B0006F8F4FF0000080F311887047000000003F
:1001C00008480068006880F308884FF0000080F35A
:1001D000148862B661B6BFF34F8FBFF36F8F00DF35
:1001E00000BF00BF08ED00E0DFF80C00016841F43B
:1001F00070010160704700BF88ED00E0EFF30980F7
:10020000BFF36F8F134B1A681EF0100F08BF20ED5D
:10021000108A20E9F04F106009B44FF0500080F3CD
:100220001188BFF34F8FBFF36F8F08F029FC4FF099
:10023000000080F3118809BC19680868B0E8F04F25
:100240001EF0100F08BFB0EC108A80F30988BFF3CE
:100250006F8F704710000020EFF30580704700009B
:100260000648804706480047FEE7FEE7FEE7FEE750
:10027000FEE7FEE7FEE7FEE7FEE7FEE7A54C000827
:10028000890100089FED1A1AF5EE000A40EE010AF6
:10029000BDEEE00AF5EEC00A10EE100AF1EE10FA1B
:1002A00038BF401E00EE100A1349F7EE001AB8EEF0
:1002B000C00A30EEC00ADFED0F0A20EE200AFCEE85
:1002C000C00A10EE900AC0F3080000EE900A01EB9D
:1002D0008000F8EE600A90ED011A70EE600A90ED71
:1002E000000A71EEE01A21EE800A00EE810A7047E2
:1002F00083F9223E000000444C950008B5EEC00A88
:10030000F1EE10FA07D2DFED1E0AB4EEE00AF1EECC
:1003100010FAA8BF7047DFED1B0AB5EEC00A60EE09
:10032000200ABDEEE01A11EE100AF1EE10FA38BF05
:10033000401E00EE100A1549F7EE001AB8EEC00A8A
:1003400030EEC00ADFED100A60EE200ABCEEE00AD3
:1003500010EE100AC0F3080000EE100A01EB800056
:10036000B8EE400A90ED011A70EEC00A90ED000A56
:1003700071EEE01A21EE800A00EE810A704700005B
:10038000CD024CB483F9223E000000444C95000895
:100390002DE9F05F0546002092469B4688460646BA
:1003A000814640241BE0284641464746224600F04D
:1003B00053F853465A46C01A914110D31146184675
:1003C000224600F03AF82D1A67EB01084F46224604
:1003D0000120002100F031F817EB00094E41201EEA
:1003E000A4F10104DFDC484631462A464346BDE815
:1003F000F09F40EA01039B0703D009E008C9121FE0
:1004000008C0042AFAD203E011F8013B00F8013BCE
:10041000521EF9D27047D2B201E000F8012B491EFA
:10042000FBD270470022F6E710B513460A46044691
:100430001946FFF7F0FF204610BD202A04DB203AC2
:1004400000FA02F1002070479140C2F1200320FA27
:1004500003F3194390407047202A04DB203A21FA25
:1004600002F00021704721FA02F3D040C2F12002CD
:10047000914008431946704700207047064C074DCD
:1004800006E0E06840F0010394E807009847103464
:10049000AC42F6D3FFF77CFEC89E0008E89E000839
:1004A00070B58C1810F8015B15F0070301D110F836
:1004B000013B2A1106D110F8012B03E010F8016B63
:1004C00001F8016B5B1EF9D12B0705D40023521EE6
:1004D0000DD401F8013BFAE710F8013BCB1A921C4E
:1004E00003E013F8015B01F8015B521EF9D5A1424C
:1004F000D8D3002070BDFEE7014801F017B8000016
:10050000443F0020014801F011B80000443F0020A2
:10051000014801F00BB80000443F0020014801F001
:1005200005B80000443F0020014800F0FFBF000074
:100530006C3F0020014800F0F9BF00006C3F002034
:10054000014800F0F3BF00006C3F0020014800F0BC
:10055000EDBF00006C3F002010B529482DED028B47
:1005600000F1080186B01EC98DE81E00D0E9001018
:10057000CDE9041004226946224800F04DF8022219
:1005800004A9214800F048F81E4801F059FB022157
:100590001C4800F013FD1C4801F052FB10211A48C2
:1005A00000F00CFD9FED198A01221649B0EE480AB1
:1005B000174803F02FFE1648B0EE480A02221149F0
:1005C000383003F027FE1248B0EE480A03220D49E6
:1005D000703003F01FFE0E48B0EE480A04220949AD
:1005E000A83003F017FE02210A4800F0DFFA09489C
:1005F0000221383000F0DAFA06B0BDEC028B10BDF3
:1006000020950008443F00206C3F002000000000BF
:10061000904C0020704D00202DE9F0418AB0074633
:100620000120144600250E22CDE90802CDE9060579
:100630002F4A88462E462946974201D1049130E040
:100640002C498F422DD10E2604902AE0059658F8A9
:1006500025006D1C40010090E8B2A04226D258F857
:100660002010401C4901C0B20191A04229D258F883
:100670002010401C4901C0B20291A0422CD258F86F
:100680002010401C4901761CC5B20391F6B26946A0
:10069000384600F099FD6946384600F095FD00287F
:1006A000F9D1A542D2D30AB0BDE8F08169463846F7
:1006B00000F08AFD6946384600F086FD0028F9D131
:1006C000F1E76946384600F07FFD6946384600F09C
:1006D0007BFD0028F9D1E6E76946384600F074FD55
:1006E0006946384600F070FD0028F9D1DBE70000CC
:1006F000443F00206C3F002070B50B4C06460020A4
:100700002160A060C4E903031546304600F0F8FEFE
:10071000C1B20029F9D02A463046BDE87040034BEB
:10072000014900F087BC00001C4C00209400002010
:1007300010B507F0FDFF6249002301228C7A614861
:10074000012C0BD0022C0CD080F84930CC7A012C33
:100750000BD080F84730022C0ED008E080F84920FA
:10076000F4E7022480F84940F0E780F8472080F859
:100770004830012C0AD001E080F8482080F846304B
:10078000B1F90830B3F5257F03D004E080F84620A6
:10079000F6E780F84420B1F9002000EE102AB8EE08
:1007A000C01A9FED490A4C4AC1EE000AB9EE001A80
:1007B00060EE810AC0ED010AB1F9021000EE901A54
:1007C0004249F8EEE00A80EE801AB1EE000A21EE0E
:1007D000000A80ED000A91ED020AB1EE400A80EDB8
:1007E000060A91ED000A80ED070A91ED030A80EDFB
:1007F000080A91ED040A80ED090A91ED050A3449D1
:1008000080ED0A0A91ED0B0AD1ED050A30EE600A7F
:1008100080ED140A91ED190AD1ED130A70EE200A49
:100820009FED2C0A70EE800AC0ED130AD1ED0C0A80
:10083000C0ED160AD1ED1A0AC0ED150AD1ED0D0A68
:10084000C0ED180AD1ED1B0AC0ED170AD2ED060A59
:10085000F1EE600AC0ED190AD1ED210A91ED271AD7
:1008600070EEC10A30EE800A80ED260A91ED350A5D
:10087000D1ED2F0AB1EE400A30EE600A80ED270A72
:1008800091ED280AB1EE400A80ED280A91ED360A72
:10089000B1EE400A80ED290A91ED290AB1EE400A35
:1008A00080ED2A0A91ED370AB1EE400A80ED2B0A5D
:1008B00092ED140A80ED2C0ABDE8104007F058BFF5
:1008C000F84D0020104E002000002544E04D00208F
:1008D000904C0020DB0F4940704D002070B54D4812
:1008E0004D4D02462DED028B92ED1C0A90F84910F9
:1008F000F1EE400A92ED2F0A9FED488A484C0129FB
:1009000025D0022946D005F0EFFF0020C0EBC00142
:1009100004EBC101401C81ED088A81ED098A81ED5B
:100920000A8A0428F2DB85ED048A85ED128A002507
:10093000C5EBC50004EBC00003F0C4FC6D1C042D26
:10094000F6DBBDEC028BBDE8704000F011BA9FED04
:10095000351A0021C1EBC10204EBC202491C82ED31
:10096000088A82ED091A0429F4DB90ED1B1A84ED44
:100970000A1A90ED1A1A84ED181A90ED2D1AB1EE9C
:10098000411A84ED261A90ED2E1AB1EE411A84ED2B
:10099000341A3AE00021B2EE041AF0EE001A00BF59
:1009A000C1EBC10204EBC202491C82ED081AC2ED80
:1009B000091A82ED0A8A0429F2DB90ED1E1AD4EDA1
:1009C000051A31EE211A84ED061A90ED1D1AD4EDA8
:1009D000131A71EE611A9FED141A71EEC11AC4ED6B
:1009E000141AD4ED211A90ED302A71EEC21A31EEAC
:1009F000811A84ED221A90ED311AD4ED2F1AB1EE3E
:100A0000411A31EE611A84ED301AC5ED040A85ED04
:100A1000120A8CE7104E0020704D002000000000EC
:100A2000904C00208FC2F53CDB0F49400C4810B5BC
:100A30009FED0A0A80ED050A9FED0A0A80ED130A70
:100A40009FED090A80ED210A9FED080A80ED2F0A2B
:100A500005F064FEBDE8104003F018BD0AD7233F3F
:100A6000904C002014AE473FB81E453F6666263FB7
:100A700008B5FFF7DBFF07F076F90A4C0090A07A83
:100A8000032804D1E07A022801D1FFF7CFFFFFF756
:100A90004FFE05F0B3FAFFF721FF0221684607F089
:100AA00056F9ECE7F84D00204168491C4160017897
:100AB00001291BD002293AD003295BD1D0ED040AC9
:100AC0009FED2E1A304A80EE810A9FED2D1AC0EE5E
:100AD000010A9FED2C0A20EE800ABDEEC00A10EE3E
:100AE000101A09B2C18491421FDD44E090ED041A4E
:100AF0009FED260A284AC1EE000A9FED251A60EEF6
:100B0000800A80EE810AF2EE040A80EE201A9FED40
:100B1000210A21EE000ABDEEC00A10EE101A09B239
:100B2000C184914201DD524221E0114621E0D0ED25
:100B3000040AB2EE0C1A1C4A80EE810ADFED170A95
:100B40009FED171A60EE200A80EE810AB3EE041AB8
:100B5000C0EE010A9FED130A20EE800ABDEEC00A26
:100B600010EE101A09B2C1849142DEDD5242914268
:100B7000DBDAC184704747F23052F8E72DB23D3FCF
:100B8000295CCF3F0060EA46D08AFFFF0000104298
:100B9000EC51383E00401C46F0D8FFFF9A9999412D
:100BA0009A99993E0000804600C0FFFF017070478F
:100BB00070B585686D1C85604268AB1A00EE103A0E
:100BC000322DF8EE400A00EE102AB8EE400A80EE10
:100BD000801A80ED031A068C86850A8854BA04842C
:100BE0004A8852BA13B243848A8852BA12B28284B3
:100BF000897980F8281002D2448500214163A11B25
:100C0000B1F5805F02DB416B491E04E011F5805FA6
:100C1000416B01DC491C416304EB4131448D091BEC
:100C2000016304789FED460ADFED460A9FED461A00
:100C3000012C28D0022C53D0032C50D101EE901A55
:100C4000F8EEE11A61EE801A61EEA00AC0ED050A25
:100C500000EE903AF8EEE00A20EE800AC0EE010ABB
:100C600000EE102A9FED391AC0ED060AF8EEC00A10
:100C700080EE810ADFED360A20EE200ADFED350A2C
:100C800020EE200A29E001EE901AF8EEE11A61EE5A
:100C9000801A61EEA00AC0ED050A00EE903AF8EE67
:100CA000E00A20EE800AC0EE010A00EE102A9FED55
:100CB0002A1AC0ED060AF8EEC00A80EE810AF2EEAA
:100CC000040A20EE200ADFED250A20EE201A9FED0F
:100CD000240AC1EE000A20EE800A80ED070A70BDEA
:100CE00001EE901AF8EEE11A61EE801A61EEA01A98
:100CF000F2EE0C0A81EEA02A01EE903AF8EEE11A2B
:100D000061EE801A81EE810ADFED181A80ED052A66
:100D100080EE201A00EE102AB8EEC00A80ED061A06
:100D20009FED101A20EE010AB3EE041A20EE010A1C
:100D30009FED0D1A20EE011A81EE210AA0E70000B6
:100D4000DB0FC94000000039000070420060EA4635
:100D5000295CCF3F2DB23D3F00401C46EC51383E50
:100D600000001042000080389A99993E9A99994162
:100D700010B50F48FFF798FE0D483830FFF794FE86
:100D80000B4A0C48D18C0B0A03704170B2F85E100C
:100D900008230A0A8270C1700021017141718171BA
:100DA000C1710246BDE8104099010348FFF7A4BC99
:100DB000704D0020A80000206C3F0020014800F08A
:100DC000CBBF00001C490020014800F0C5BF000057
:100DD0003C4A0020014800F0BFBF0000FC47002053
:100DE000014800F0B9BF00009C4A0020014800F013
:100DF000B3BF00005C480020014800F0ADBF000018
:100E0000BC480020014800F0A7BF0000FC4A0020B9
:100E1000014800F0A1BF00007C490020014800F01B
:100E20009BBF00005C4B0020014800F095BF000014
:100E3000DC49002001681823CAB2103AB2FBF3F271
:100E4000054B6FF30901032A9B5CC36500D9091D9B
:100E50008165084670470000E094000810B501461F
:100E600000208B698A6A4FF0C07453B1B3F5005FFC
:100E700015D072B1012A0CD0022A0AD0032A09D156
:100E800004E01AB1012A06D0022A03D1C96AC901B5
:100E900000D5012010BDC96AA142FAD010BD002AB8
:100EA000F7D0012AF2D0022AF3D0032AF3D010BDE2
:100EB00030B50468256825F48025256004686360E2
:100EC0008368402B036803D099600068C26030BD1E
:100ED0009A600068C16030BD2DE9F0410A884FF486
:100EE000A56CC2F30A05A5F5806505804A788B7864
:100EF000D20842EA4312C2F30A04A4F58064448093
:100F00008A78CB78920942EA83020B7905F5257538
:100F100042EA8322C2F30A03A3F5806383800A793D
:100F20004E79520842EAC612C2F30A02A2F5806262
:100F3000C2800E8AC6F30A06A6F5806606814E793F
:100F4000B70987724E796545C6F30116C6721CD87B
:100F500004F52574644518D803F52573634514D842
:100F600002F52572624510D87FB176B1CA888281B8
:100F70000A89C2814A8902820A7B82744A7BC274CE
:100F8000C98981820020BDE8F0811621FFF74AFA65
:100F90000120F8E790ED001AB4EEC01AF1EE10FA55
:100FA00002DB80ED000A7047B4EEE01AF1EE10FAB1
:100FB000F9D8C0ED000A70477047704770B590F8D7
:100FC00020600D4604460C48814204D94FF4D0619C
:100FD0000AA006F073FE012E07D0022E05D0606A2B
:100FE00040F480206062012070BD2068416929437F
:100FF0004161002070BD00007F8F03002E2E2F4422
:101000007269766572732F53544D33324634787853
:101010005F48414C5F4472697665722F5372632F4B
:1010200073746D3332663478785F68616C5F6361C6
:101030006E2E63002DE9F04790F820809946164601
:101040000D46044600688768886830B1042804D0DB
:1010500040F2E9414EA006F031FEE86830B10228C6
:1010600004D040F2EA414AA006F028FE2869082888
:1010700004D940F2EB4146A006F020FEA868002803
:101080001BD06868B0F1005F04D340F2F24140A089
:1010900006F014FE287D30B1012804D040F2F4415E
:1010A0003BA006F00BFEB8F1010F0DD0B8F1020F16
:1010B0000AD0606A40F4802066E02868B0F5006FCE
:1010C000E8D340F2EE41E2E717F0406F01D1F800BB
:1010D00057D5C7F30160022803D9606A40F40000C5
:1010E00052E001218140C9F80010AA684FF4C07194
:1010F0009AB1EB681A436B6842EAC302236801EBBA
:101100000017DA514FF4C272276802EB00122B6904
:10111000BB502B7D012B05D009E02B88EA6842EA01
:101120004352EBE723689D5845F480759D50327912
:10113000F379757942EA0362B3791B0443EA052324
:101140001A434FF4C675236805EB00155A513278DF
:10115000F378757842EA0362B3781B0443EA052307
:101160001A434FF4C475236805EB00155A512268E1
:1011700001EB0010115841F0010111500020BDE8B1
:10118000F087606A40F4001060620120F7E7000019
:101190002E2E2F447269766572732F53544D33325D
:1011A000463478785F48414C5F4472697665722FA7
:1011B0005372632F73746D3332663478785F68616D
:1011C0006C5F63616E2E630070B50C4690F8201062
:1011D000012907D0022905D0416A41F480214162EA
:1011E000012070BD20684FF48035A84204D34FF42D
:1011F000547163A006F062FD6068A84204D340F217
:1012000051315FA006F05AFDA068A84204D340F215
:1012100052315BA006F052FDE068A84204D340F2D0
:10122000533157A006F04AFDA06930B1012804D01F
:101230004FF4557152A006F041FDE06930B101282C
:1012400004D040F255314EA006F038FD206930B18F
:10125000012804D040F2563149A006F02FFD206A43
:1012600030B1012804D040F2573145A006F026FDE8
:101270006069514D1B2804D940F2723140A006F03C
:101280001DFD606A1B2804D940F273313CA006F0B2
:1012900015FDD5F8000240F00100C5F80002D5F8B0
:1012A000000220F47C50C5F80002D5F80002616A03
:1012B00040EA0120C5F80002207D00F01F01012056
:1012C0008840D5F81C128143C5F81C12E169B1B9F8
:1012D000D5F80C128143C5F80C12A289616862F33B
:1012E0001F41626905EBC202C2F8401222892168DF
:1012F00062F31F41626905EBC202C2F84412E16960
:10130000012916D1D5F80C120143C5F80C12228818
:10131000616862F31F41626905EBC202C2F84012C4
:101320002289E16862F31F41626905EBC202C2F8DB
:101330004412A1690029D5F804120FD051EA000126
:10134000C5F8041221690029D5F8141208D0014308
:10135000C5F81412216A012904D008E08143EFE79F
:101360008143F5E7D5F81C120143C5F81C12D5F8E6
:10137000000220F00100C5F80002002070BD00004E
:101380002E2E2F447269766572732F53544D33326B
:10139000463478785F48414C5F4472697665722FB5
:1013A0005372632F73746D3332663478785F68617B
:1013B0006C5F63616E2E6300006400407047000044
:1013C0002DE9F04190F820801D4617460E00044696
:1013D00006D0012E04D04FF4BE613BA006F06EFC97
:1013E000B8F1010F06D0B8F1020F03D0606A40F4E3
:1013F00080205EE02068002E56D00069800755D01E
:101400004FF4D870216800EB0610095811F0040160
:10141000B960216809584FD0C90879602168085817
:1014200000F00200F8604FF4DA70216800EB06105B
:10143000095801F00F01396121680958C1F30721EA
:10144000B96121680858000C78614FF4DC7021689C
:1014500000EB06100958297021680958090A6970BB
:1014600021680958090CA97021680858000EE87015
:101470004FF4DE70216800EB0610095829712168CD
:101480000958090A697121680958090CA97121686C
:101490000858000EE87120688EB1016941F0200102
:1014A00001610020BDE8F081C068A7E7606A40F4F0
:1014B000001060620120F5E7490D3960AEE7C168B0
:1014C00041F02001C160ECE72E2E2F447269766551
:1014D00072732F53544D3332463478785F48414C01
:1014E0005F4472697665722F5372632F73746D3324
:1014F00032663478785F68616C5F63616E2E63007A
:101500000246002092F82010012901D002290CD1B6
:1015100011688A68520100D501208A68120100D53D
:10152000401C8968C90000D5401C70472DE9F05F58
:101530000546006800244669D0F804908768D0F812
:101540000CB0D0F810A0D0F81880F10748D0F907F7
:1015500014D001218160B80703D5284600F09DFB17
:101560000CE0780702D54FF4006407E0380702D595
:101570004FF4805402E0284600F08EFBF80516D5A3
:1015800029684FF480708860B80503D5284600F0BC
:1015900086FB0CE0780502D544F4005407E03805DA
:1015A00002D544F4804402E0284600F077FBF803BB
:1015B00016D529684FF480308860B80303D52846D3
:1015C00000F06FFB0CE0780302D544F4004407E020
:1015D000380302D544F4803402E0284600F060FB72
:1015E000300707D55FEACB6004D52968102044F4A2
:1015F0000074C86070074FF0080707D55FEA0B70EA
:1016000004D52868C760284600F0A8FAB00706D5B8
:101610002868C068800702D0284600F0A1FA70064A
:1016200007D55FEACA6004D52968102044F48064B5
:101630000861B00607D55FEA0A7004D5286807611B
:10164000284600F0D1FAF00606D528680069800720
:1016500002D0284600F0CAFAB00308D55FEAC96094
:1016600005D5296810204860284600F0E7FAF00305
:1016700007D55FEA097004D528684760284600F05E
:1016800011FB300446D55FEA497040D5F00504D51A
:101690005FEAC87001D044F00104B00504D55FEAE8
:1016A000887001D544F00204700504D55FEA4870E3
:1016B00001D544F00404300529D518F0700F26D068
:1016C00008F07000402815D006DC102809D020282A
:1016D0000AD0302816D10AE050280ED0602811D147
:1016E0000EE044F008040DE044F010040AE044F079
:1016F000200407E044F0400404E044F0800401E0EA
:1017000044F480742868816921F07001816129683E
:1017100004204860002C05D0686A2043686228468F
:10172000FFF74CFEBDE8F09F70B504007ED0A449E1
:101730002068884207D0A349884204D040F21D1196
:10174000A1A006F0BBFA207E30B1012804D04FF4EE
:101750008F719DA006F0B2FA607E30B1012804D0EE
:1017600040F21F1198A006F0A9FAA07E30B101281E
:1017700004D04FF4907194A006F0A0FAE07E30B14E
:10178000012804D040F221118FA006F097FA207FA3
:1017900030B1012804D04FF491718BA006F08EFA7D
:1017A000607F30B1012804D040F2231186A006F0FA
:1017B00085FAA06868B1B0F1804F0AD0B0F1004F4F
:1017C00007D0B0F1404F04D04FF492717EA006F0E4
:1017D00075FAE06868B1B0F1807F0AD0B0F1007F9F
:1017E00007D0B0F1407F04D040F2251176A006F07A
:1017F00065FA206998B3B0F5803F30D0B0F5003F6E
:101800002DD0B0F5403F2AD0B0F5802F27D0B0F5CD
:10181000A02F24D0B0F5C02F21D0B0F5E02F1ED0DE
:10182000B0F5002F1BD0B0F5102F00E041E016D02E
:10183000B0F5202F13D0B0F5302F10D0B0F5402FD9
:101840000DD0B0F5502F0AD0B0F5602F07D0B0F50D
:10185000702F04D04FF493715BA006F02FFA6069EB
:10186000C8B1B0F5801F16D0B0F5001F13D0B0F589
:10187000401F10D0B0F5800F0DD0B0F5A00F0AD0EA
:10188000B0F5C00F07D0B0F5E00F04D040F227113B
:101890004DA006F013FA6068401EB0F5806F04D3C7
:1018A0004FF4947148A006F009FA94F8200010B1A2
:1018B00004E0012070BD204600F0A2F82068016815
:1018C00021F00201016000F0BBFE0546052604E0A0
:1018D00000F0B6FE401B0A2811D820684068800737
:1018E000F6D42068016841F00101016000F0A8FE13
:1018F00005460BE000F0A4FE401B0A2806D9606AEA
:1019000040F40030606284F82060D2E720684068CC
:10191000C007EFD0207E0128206801683DD021F06B
:1019200080010160607E01282068016838D021F0C4
:1019300040010160A07E01282068016833D021F0B9
:1019400020010160E07E0128206801682ED041F06E
:1019500010010160207F01282068016829D021F052
:1019600008010160607F01282068016824D021F00F
:1019700004010160D4E902010843D4E904121143CF
:1019800008436168491E08432168C86100206062FD
:10199000012084F82000002070BD41F08001C0E7E4
:1019A00041F04001C5E741F02001CAE721F01001F4
:1019B000CFE741F00801D4E741F00401D9E7000086
:1019C00000640040006800402E2E2F447269766546
:1019D00072732F53544D3332463478785F48414CFC
:1019E0005F4472697665722F5372632F73746D331F
:1019F00032663478785F68616C5F63616E2E630075
:101A0000F0B587B0044614216846FEF70BFD4E4B37
:101A10004E48DFF830E11968D4F800C04B4A03257E
:101A20000226092710300024491CF4453AD11960D8
:101A3000012907D1016841F000710160006800F0E0
:101A400000700590106840F0080010601068CDE943
:101A5000005600F00800CDE9047069463C48CDE925
:101A6000024500F02FFC00220521132000F098FE13
:101A7000132000F063FE00220521142000F090FEE8
:101A8000142000F05BFE00220521152000F088FEE6
:101A9000152000F053FE00220521162000F080FEE4
:101AA00016204BE0DFF8ACE0F44549D1D0F800C097
:101AB0004CF0806CC0F800C0D0F800C001290CF0D8
:101AC000806CCDF814C0196007D1016841F0007135
:101AD0000160006800F000700590106840F002009E
:101AE0001060106802AB00F0020005904FF4405007
:101AF000CDE9000683E8B0006946174800F0E2FB34
:101B0000002205213F2000F04BFE3F2000F016FE92
:101B100000220521402000F043FE402000F00EFE90
:101B200000220521412000F03BFE412000F006FE8E
:101B300000220521422000F033FE422000F0FEFD8D
:101B400007B0F0BD0064004084000020303802403F
:101B5000000C024000680040000402407047000092
:101B600010B51C4CA04233D11B4B1C4A0021FFF77F
:101B700027FC1A48016831B1132920D014291ED03E
:101B8000152920D11BE014480078012806D002282E
:101B900007D0032809D0042815D10AE00E491048BF
:101BA0000AE00F480C49383006E00D480A49703009
:101BB00002E00B480849A83002F03EFB03E0064A69
:101BC000084803F029F92068416941F002014161A8
:101BD00010BD0000443F002098000020344C00203D
:101BE000904C0020E04D00207047000010B50F4CD5
:101BF000A0421AD10E4B0F4A0121FFF7E1FB0D481D
:101C00000068A0F50070013802D0012808D102E078
:101C10000749094802E0084805493830FEF7C8FF7F
:101C20002068416941F01001416110BD6C3F002006
:101C3000A0000020504C0020704D00207047000094
:101C400070B5044690F82000012804D0606A40F482
:101C50000020606218E0022084F8200020680168FB
:101C600021F00101016000F0EBFC05460EE000BF31
:101C700000F0E6FC401B0A2808D9606A40F40030F6
:101C80006062052084F82000012070BD2068406853
:101C9000C007EDD1606270BD7047704770477047F4
:101CA0007047704770472DE9F0410446876D00F09A
:101CB000C7FC064694F835000025022806D080208F
:101CC000606584F834500120BDE8F0812068016827
:101CD00021F0160101602068416921F08001416115
:101CE000206C08B9A06C20B12068016821F00801BF
:101CF00001602068016821F0010101600BE000F043
:101D00009FFC801B052806D92020606504F8345FFD
:101D100003206070D8E720680068C007EFD194F80E
:101D20005C103F208840B86004F8345F0120607088
:101D30000020C9E790F83510022903D080214165C1
:101D400001207047052180F835100068016821F0F6
:101D500001010160002070472DE9F84304464FF06F
:101D60000009CDF8009063484FF41651A56D006846
:101D7000B0FBF1F72E6894F85C10082000FA01F12E
:101D800031420FD021680A6852070BD50A6822F049
:101D900004020A6094F85C108840A860606D40F00E
:101DA0000100606594F85C104FF0010808FA01F03A
:101DB000304208D021684969090604D5A860606DE1
:101DC00040F00200606594F85C10042088403042C6
:101DD00008D021680968890704D5A860606D40F0C3
:101DE0000400606594F85C1010208840304218D0E0
:101DF00021680968090714D5A860206801684903AB
:101E000004D50068000308D5A16C07E00168C90586
:101E100003D4016821F008010160216C09B120465A
:101E2000884794F85C1020208840304231D02168E7
:101E30000968C9062DD5A86094F8350005282068E2
:101E4000016806D0490347D5006800031DD4616CC2
:101E50001CE021F0160101602068416921F0800139
:101E60004161206C08B9A06C20B12068016821F0A4
:101E70000801016094F85C103F208840A86084F855
:101E8000349084F83580216D1FE0E16B09B1204664
:101E90008847606D00282BD0606DC00714D00520E6
:101EA00084F835002068016821F001010160009884
:101EB000401C0090B84203D820680068C007F6D1E3
:101EC00084F8349084F83580E16C002910D001B09A
:101ED0002046BDE8F04308470168C905D5D401682C
:101EE00021F01001016084F8349084F83580CCE74B
:101EF000BDE8F883000000202DE9F041044600F021
:101F00009FFB0546002C7CD0A249206888423ED029
:101F1000A049183188423AD09E493031884236D0A3
:101F20009C494831884232D09A49603188422ED04B
:101F30009849783188422AD096499031884226D0F3
:101F40009449A831884222D0934988421FD09249AF
:101F5000183188421BD090493031884217D08E49C1
:101F60004831884213D08C49603188420FD08A4969
:101F7000783188420BD088499031884207D0864911
:101F8000A831884203D0B82184A005F097FE60688C
:101F9000C0B1B0F1007F15D0B0F1806F12D0B0F1B8
:101FA000C06F0FD0B0F1006F0CD0B0F1206F09D02E
:101FB000B0F1406F06D0B0F1606F03D0B92177A0C7
:101FC00005F07CFEA06838B1402805D0802803D0F9
:101FD000BA2172A005F072FEE068B0F5007F04D06F
:101FE00018B1BB216DA005F069FE2069B0F5806FC6
:101FF00004D018B1BC2169A005F060FE606958B139
:1020000000E071E0B0F5006F06D0B0F5805F03D05E
:10201000BD2162A005F052FEA06948B1B0F5005F95
:1020200006D0B0F5804F03D0BE215CA005F046FE7F
:10203000E06940B1B0F5807F05D0202803D0BF21F2
:1020400056A005F03BFE206A60B1B0F5803F09D094
:10205000B0F5003F06D0B0F5403F03D0C0214FA0FF
:1020600005F02CFE606A002832D0042806D0C12179
:102070004AA005F023FE606A002829D0A06A48B172
:10208000012807D0022805D0032803D0C62143A089
:1020900005F014FEE06A60B1B0F5000F09D0B0F1B0
:1020A000807F06D0B0F1C07F03D0C7213BA005F0F0
:1020B00005FE206B60B1B0F5001F09D0B0F5800FB0
:1020C00006D0B0F5C00F03D0C82134A005F0F6FD4E
:1020D000002684F83460022084F835002068016806
:1020E00021F0010101600EE00120BDE8F08100BF98
:1020F00000F0A6FA401B052805D9202060650320C2
:1021000084F83500F1E720680068C007F0D1226844
:10211000116830480140D4E901031843D4E903357C
:102120002B43184363691843A3691843E3691843B1
:10213000236A18430843616A042903D1D4E90B13C5
:1021400019430843106020684069656A20F0070160
:1021500028460D43012704280CD1A06A0543E06AF4
:1021600040B12046FEF77AFE20B14020606584F839
:102170003570B9E7206845612046FEF75BFE94F8AC
:102180005C203F2191408160666584F835700020B5
:10219000ABE7000010600240106402402E2E2F4476
:1021A0007269766572732F53544D333246347878A2
:1021B0005F48414C5F4472697665722F5372632F9A
:1021C00073746D3332663478785F68616C5F646D08
:1021D000612E63003F8010F02DE9F04789460446E8
:1021E000876D0025581E4FF6FF711E4690468842A7
:1021F00004D34FF4E6711CA005F060FD94F83400A0
:1022000001280DD0012084F8340094F83510002006
:10221000012907D084F8340002252846BDE8F0875C
:102220000220FBE7022184F8351060653346424600
:1022300049462046FEF73CFE94F85C103F2088405B
:10224000B8602068016841F016010160206C20B17F
:102250002068016841F0080101602068016841F0D0
:1022600001010160D9E700002E2E2F4472697665C6
:1022700072732F53544D3332463478785F48414C53
:102280005F4472697665722F5372632F73746D3376
:1022900032663478785F68616C5F646D612E6300CC
:1022A00070B5044600F0CCF90546601C02D0044825
:1022B0000078044400F0C4F9401BA042FAD370BD7A
:1022C000040000202DE9F84F0446A1480D46844241
:1022D0001BD0A048844218D09F48844215D09F4804
:1022E000844212D09E4884420FD09E4884420CD033
:1022F0009D48844209D09D48844206D09C4884422F
:1023000003D0B3219BA005F0D9FC28680104090C77
:1023100001D0000C03D0B42196A005F0CFFC686872
:10232000F8B101281DD011281BD0022819D012287D
:1023300017D09F49884214D09E49884211D09E49A7
:1023400088420ED09D4988420BD09D49884208D0D2
:102350009C49884205D0032803D0B52185A005F00B
:10236000ADFCA86838B1012805D0022803D0B621F9
:1023700080A005F0A3FC00264FF0010A4FF0030BEC
:102380000AFA06F02F688046074047457ED1686804
:10239000012805D0022803D0112801D012281DD110
:1023A000E86848B1012807D0022805D0032803D0E7
:1023B000C82170A005F082FCA06872000BFA02F13F
:1023C0008843E96891400143A1606068297920EA67
:1023D0000800C1F30011B14001436160E068720080
:1023E000A96890460BFA02F920EA090001FA08F1FF
:1023F0000143E1606868022801D012282ED12869C3
:10240000F8B109281DD001281BD0022819D00328B3
:1024100017D0042815D0052813D0062811D0072876
:102420000FD008280DD00A280BD00B2809D00C2873
:1024300007D00D2805D00F2803D0E0214DA005F0CE
:102440003DFCF00804EB8003196A7007C20E0F20F0
:102450009040814328699040084318622068297998
:1024600020EA090001F0030101FA08F101432160AB
:102470006868C00065D55448016841F48041016036
:10248000006826F0030100F4804000E059E000906D
:102490004E480A18D2F80808B1070B0F0F219940CF
:1024A00088432B498C4201D1002123E029498C42E9
:1024B00001D101211EE028498C4201D1022119E0FD
:1024C00026498C4201D1032114E025498C4201D1D7
:1024D00004210FE023498C4201D105210AE0224961
:1024E0008C4201D1062105E020498C4201D107210F
:1024F00000E0082199400143C2F8081834490868EF
:102500006A68B843D20300D5384308603049091DD2
:1025100008686A68B843920300D5384308602C49BC
:10252000083108686A68B843D20200D538430860A9
:1025300027490C3108686A68B843920200D53843CD
:102540000860761C102EFFF41BAFBDE8F88F00006A
:10255000000002400004024000080240000C02405B
:10256000001002400014024000180240001C02400B
:10257000002002402E2E2F447269766572732F530D
:10258000544D3332463478785F48414C5F44726929
:102590007665722F5372632F73746D33326634789D
:1025A000785F68616C5F6770696F2E630000000080
:1025B0000000111000002110000031100000121066
:1025C0000000221000003210443802400030014068
:1025D000003C014070B515460C00064604D140F29F
:1025E0009F1108A005F06AFB45B1012D04D04FF4FE
:1025F000D07104A005F062FBB46170BD2004B0612D
:1026000070BD00002E2E2F447269766572732F53B1
:10261000544D3332463478785F48414C5F44726998
:102620007665722F5372632F73746D33326634780C
:10263000785F68616C5F6770696F2E6300000000EF
:10264000014880687047000004000020024881684B
:102650000278114481607047040000200B4810B5D7
:10266000016841F400710160016841F4806101601A
:10267000016841F480710160032000F0E1F800205E
:1026800000F006F800F03EF8002010BD003C0240CB
:1026900010B5014688B00022192000F081F81920F9
:1026A00000F04CF813480024016841F40031016047
:1026B000006805A900F400300690684600F026FA8C
:1026C00000F054FA0C494000B0FBF1F10C480B4A01
:1026D000491E026040F2E732C0E90324C0E9011458
:1026E00000F080FD10B1012008B010BD044800F0DA
:1026F00051FEF9E74438024040420F0000440140D7
:10270000BC4B00200C4882B0016841F4804101605C
:10271000006800F4804000900748001F016841F005
:10272000805101600068002200F0805000900F216D
:10273000901E02B000F034B84438024010B50400D6
:1027400003D5BE2107A005F0B9FA002C09DB04F07F
:102750001F01012088406109890001F1E021C1F8D1
:10276000000110BD2E2E2F447269766572732F53AF
:10277000544D3332463478785F48414C5F44726937
:102780007665722F5372632F73746D3332663478AB
:10279000785F68616C5F636F727465782E630000A8
:1027A00070B515460C460646102A03D3AA2114A07C
:1027B00005F084FA102C03D3AB2111A005F07EFAAA
:1027C0001E480068C0F30223C3F107022046042A12
:1027D00000D90422191D072901D2002300E0DB1EC5
:1027E000012404FA02F1491E014099409C40641EF4
:1027F0002C4021433046BDE8704004F094B80000FE
:102800002E2E2F447269766572732F53544D3332D6
:10281000463478785F48414C5F4472697665722F20
:102820005372632F73746D3332663478785F6861E6
:102830006C5F636F727465782E6300000CED00E0CE
:1028400010B5044607280BD0062C09D0052C07D05C
:10285000042C05D0032C03D0922108A005F02EFAF9
:10286000154904F0070208684FF6FF03184040EAD4
:102870000220124A1043086010BD00002E2E2F4483
:102880007269766572732F53544D333246347878BB
:102890005F48414C5F4472697665722F5372632FB3
:1028A00073746D3332663478785F68616C5F636F20
:1028B000727465782E6300000CED00E00000FA05EC
:1028C0002DE9F0470E4604007DD02068401E0E28FA
:1028D00004D940F251217AA005F0F0F996B1012E09
:1028E00010D0022E0ED0032E0CD0042E0AD0052EAE
:1028F00008D0062E06D0072E04D040F2522170A038
:1029000005F0DCF9DFF8F081D8F80000F7B200F04C
:102910000F00B04207D288F80070D8F8000000F02D
:102920000F00B0424FD12068744D810729D5400770
:1029300003D5286840F4E05028602078000703D5CC
:10294000286840F460402860A068A0B1802812D0B8
:10295000902810D0A0280ED0B0280CD0C0280AD0C3
:10296000D02808D0E02806D0F02804D040F2752105
:1029700053A005F0A3F92868A16820F0F0000843EF
:1029800028602078C00743D0DFF870916068A9F113
:10299000080988B1012822D0022824D0032822D097
:1029A0004FF41F7146A005F089F96068012816D020
:1029B000022818D0032816D0D9F800008007002874
:1029C00033DA286800E030E0616820F00300084353
:1029D0002860FFF735FE814641F2883A11E0D9F8C8
:1029E00000008003EBE7D9F800008001E7E700BFB3
:1029F000FFF726FEA0EB0901514502D90320BDE8EF
:102A0000F0872868616800F00C00B0EB810FEFD10F
:102A1000D8F80010404601F00F01B14207D9077005
:102A2000006800F00F00B04201D00120E7E72078F5
:102A30004FF4805640074FF4A0574FF4C0584FF45E
:102A4000E05914D5E06860B1B0420AD0B84208D06D
:102A5000404506D0484504D040F2BA2118A005F000
:102A60002DF92868E16820F4E050084328602078B8
:102A7000000715D5206960B1B0420AD0B84208D02D
:102A8000404506D0484504D040F2C1210CA005F0D5
:102A900015F92868216920F4604040EAC1002860E7
:102AA00000F074F82968164AC1F30311515CC8405C
:102AB0001449086014480068FFF7EAFD00209EE70B
:102AC0002E2E2F447269766572732F53544D333214
:102AD000463478785F48414C5F4472697665722F5E
:102AE0005372632F73746D3332663478785F686124
:102AF0006C5F7263632E6300003C02400838024042
:102B0000C894000800000020080000200F22026086
:102B10000C4A136803F003034360136803F0F003E7
:102B20008360136803F4E053C36012684FF4E0530A
:102B300003EAD20202610448006800F00F00086056
:102B40007047000008380240003C02400448054934
:102B500000680968044AC1F38221515CC84070478B
:102B60000000002008380240D894000804480549B5
:102B700000680968044AC1F34231515CC84070479B
:102B80000000002008380240D8940008154810B50D
:102B9000006810F00C02144813D01449042A0FD016
:102BA000082A0ED10F4C241F2268236802F03F022E
:102BB0005B0207D52068C0F38810A0FB010106E086
:102BC000084610BD2168C1F38811A1FB0001002354
:102BD000FDF7DEFB2168C1F30141491C4900B0FB50
:102BE000F1F010BD083802400024F40040787D0167
:102BF0002DE9F84F04007DD020680F2803D9E82183
:102C0000F2A005F05BF82078DFF8F8A3FE4DC007CE
:102C100056D060684FF480364FF4A02738B1B042E8
:102C200005D0B84203D0ED21E8A005F047F8DAF866
:102C300000105046C1F38101012909D00068C0F39A
:102C4000810002280BD1EF48001F0068400206D522
:102C50002868800334D560680028CCD030E06068F4
:102C6000B04203D1286840F480300CE0B8422868B4
:102C700003D140F480202860F4E720F480302860FD
:102C8000286820F480202860606860B1FFF7D8FCD5
:102C9000064604E0FFF7D4FC801B64287ED8286831
:102CA0008003F7D50CE0FFF7CBFC064605E000BF3C
:102CB000FFF7C6FC801B6428F0D828688003F7D48F
:102CC0002078DFF8488380074FF0000956D5E06888
:102CD00030B1012804D040F21F11BCA004F0EEFF77
:102CE00020691F2804D94FF49071B8A004F0E6FFC2
:102CF000504600E092E0DAF8001011F00C0F09D015
:102D00000068C0F38100022811D1BE48001F00688E
:102D100040020CD42868800702D5E06801287DD1E4
:102D20002868216920F0F80040EAC10016E0E06858
:102D3000B0B10120C8F80000FFF782FC064604E0AD
:102D4000FFF77EFC801B0228A8D828688007F7D5EB
:102D5000286820F0F801206941EAC00028600DE0F1
:102D6000C8F80090FFF76CFC064604E0FFF768FC2B
:102D7000801B022892D828688007F7D420780007A3
:102D80002ED5A04EA24F60696C36D0B1012808D074
:102D90004FF4B0718DA004F091FF00E04FE1606945
:102DA00078B101203860FFF74BFC074605E000BF13
:102DB000FFF746FCC01B0228C6D830688007F7D54D
:102DC0000EE0C7F80090FFF73BFC074605E000BFA8
:102DD000FFF736FCC01B0228B6D830688007F7D44E
:102DE0002078400776D5A068002740B1012806D09A
:102DF000052804D04FF4C67174A004F05FFFDFF81B
:102E000004B20BF1380BDBF80000C0000DD4DBF886
:102E1000001041F08051CBF8001000E034E1DBF805
:102E20000000012700F0805000907A4E3068C00505
:102E300011D4306840F480703060FFF701FC0090DE
:102E400006E000BFFFF7FCFB0099401A022891D86A
:102E50003068C005F6D56B4EA068683601280FD0E3
:102E60000528306810D020F001003060306820F074
:102E700004003060A068B8B1FFF7E2FB00900FE0FB
:102E8000306840F00100F4E740F004003060F7E7FC
:102E9000FFF7D6FB0099411A41F2883081428BD866
:102EA00030688007F4D50EE0FFF7CAFB009007E01A
:102EB000FFF7C6FB0099411A41F2883081428BD856
:102EC00030688007F4D42FB1DBF8001021F0805176
:102ED000CBF80010A069002876D0012809D002287C
:102EE00007D040F2CF1139A004F0E8FEA069002815
:102EF000F2D0DAF800105046C1F38101022964D003
:102F0000A069022805D0C8F86090FFF799FB044635
:102F100098E0E06938B1B0F5800F04D04FF4EC715F
:102F20002AA004F0CBFE206A3F2804D940F2D91130
:102F300026A004F0C3FE606A3238B0F5BF7F04D922
:102F40004FF4ED7121A004F0B9FEA06A02280AD066
:102F5000042808D0062806D0082804D040F2DB1147
:102F60001AA004F0ABFEE06A801E0D2804D94FF4CD
:102F7000EE7116A004F0A2FE4746C8F86090FFF775
:102F80005FFB064605E000BFFFF75AFB801B0228E7
:102F900055D828688001F7D4D4E907010843A16A0D
:102FA0001D4A490802EB0141626A41EA8211084365
:102FB00094F82C1040EA01611248001F01600120C2
:102FC0003866FFF73DFB29E060E03FE02E2E2F44FE
:102FD0007269766572732F53544D33324634787864
:102FE0005F48414C5F4472697665722F5372632F5C
:102FF00073746D3332663478785F68616C5F7263C6
:10300000632E630008380240003802400000474247
:10301000800E4742007000400000FFFF044604E0BD
:10302000FFF70EFB001B022809D828688001F7D59E
:103030002CE000BFFFF704FB001B022802D903208D
:10304000BDE8F88F28688001F4D41FE0A169012948
:103050001AD00068E26900F48001914214D1226A1A
:1030600000F03F0191420FD147F6C071626A014002
:10307000914209D1A26A00F44031914204D1E16A3F
:1030800000F07060884201D00120D9E70020D7E726
:10309000704770472DE9F05F044600683A4E3B4F99
:1030A000DFF8EC80DFF8EC90DFF8ECA00D464FF095
:1030B000804BB04215D0584513D0B84211D040458E
:1030C0000FD048450DD04FEAB641884209D0334968
:1030D000884206D0504504D040F2646130A004F02C
:1030E000EDFD286890B1102810D020280ED030288F
:1030F0000CD040280AD0502808D0602806D070286C
:1031000004D040F2656126A004F0D8FD68688028EC
:1031100005D020B140F2666121A004F0CFFD94F803
:103120003C0001282DD0012284F83C20022084F8A4
:103130003D00216848688B6820F0700C286840EAE0
:103140000C0048602068B0420FD058450DD0B842FE
:103150000BD0404509D0484507D0504505D01F4900
:10316000884202D01E49884204D1696823F0800356
:103170001943816084F83D20002084F83C00BDE8BC
:10318000F09F0220FBE70000000001400004004027
:1031900000080040000C0040000401400014004002
:1031A0002E2E2F447269766572732F53544D33322D
:1031B000463478785F48414C5F4472697665722F77
:1031C0005372632F73746D3332663478785F68613D
:1031D0006C5F74696D5F65782E630000004001408C
:1031E0000018004010B5040058D0364822688242CA
:1031F0002BD0B2F1804F28D03348824225D03348BB
:10320000824222D0324882421FD0324882421CD0B1
:103210003148824219D03148824216D03048824229
:1032200013D03048824210D02F4882420DD02F4810
:1032300082420AD02E48824207D02E48824204D0D1
:103240004FF489712CA004F039FDA06860B11028FA
:103250000AD0202808D0402806D0602804D040F2A8
:10326000131125A004F02AFD206950B1B0F5807F2C
:1032700007D0B0F5007F04D04FF48A711EA004F08F
:103280001DFDA06930B1802804D040F215111AA0AC
:1032900004F014FD94F83D0010B107E0012010BDCA
:1032A000002084F83C00204600F042F8022084F818
:1032B0003D00211D206801F015FD012084F83D002E
:1032C000002010BD00000140000400400008004044
:1032D000000C0040001000400014004000040140B9
:1032E00000400140004401400048014000180040F7
:1032F000001C0040002000402E2E2F44726976658D
:1033000072732F53544D3332463478785F48414CB2
:103310005F4472697665722F5372632F73746D33D5
:1033200032663478785F68616C5F74696D2E630013
:1033300008B5154A0168154891420ED1016841F05F
:10334000080101600068002200F0080000900521DB
:103350003220FFF725FA322010E00D4A914211D1B8
:10336000016841F4807101600068002200F48070FF
:10337000009005212D20FFF713FA2D20BDE808400D
:10338000FFF7DCB908BD0000000C004040380240E7
:103390000020004010B504460168204881422BD02F
:1033A000B1F1804F28D01E48814225D01D4881426E
:1033B00022D01D4881421FD01C4881421CD01C488D
:1033C000814219D01B48814216D01B48814213D03C
:1033D0001A48814210D01A4881420DD019488142C2
:1033E0000AD01948814207D01848814204D040F2DF
:1033F000B91117A004F062FC2068C16841F0010116
:10340000C1602068816801F00701062903D00168C6
:1034100041F001010160002010BD000000000140EA
:103420000004004000080040000C00400010004074
:1034300000140040000401400040014000440140ED
:103440000048014000180040001C004000200040DF
:103450002E2E2F447269766572732F53544D33327A
:10346000463478785F48414C5F4472697665722FC4
:103470005372632F73746D3332663478785F68618A
:103480006C5F74696D2E63002DE9F05F054690F85E
:103490003C000C46012841D0012085F83C00022068
:1034A00085F83D0020684FF4805B584516D0B0F594
:1034B000005F13D090B1102810D020280ED03028F3
:1034C0000CD040280AD0502808D0602806D0702898
:1034D00004D041F28B11D1A004F0F0FB2868816880
:1034E00021F0770121F47F4181602068D949DA4ACF
:1034F000DA4BDB4EDB4FDFF870C3DFF870834FF041
:1035000080494FF4004A50287ED00FDC202804D098
:1035100007DC0028FBD0102852D165E10220BDE86D
:10352000F09F3028F9D04028F6D12AE160286CD0ED
:10353000702873D0584544D04FF400584045EBD123
:10354000286888420ED048450CD090420AD0984254
:1035500008D0B04206D0B84204D041F2B611AFA0B4
:1035600004F0ACFBA06858B1584509D0404507D0DD
:10357000B0F5405F04D041F2B911A8A004F09EFB61
:103580006068504509D040B1022806D00A2804D00E
:1035900041F2BA11A1A004F091FBE0680F2804D910
:1035A00041F2BB119DA004F089FBD4E90121E3683D
:1035B000286801F0FBFB2868816841F48041816044
:1035C000D8E028688842FBD04845F9D09042F7D02F
:1035D0009842F5D0B042F3D0A5498842F0D0A54931
:1035E0008842EDD0B842EBD06045E9D0A24988428C
:1035F000E6D0A2498842E3D04045E1D0A0498842C4
:10360000DED0A049884202E04DE07FE006E0D7D05E
:1036100041F2971181A004F051FBABE02868884289
:1036200012D0484510D090420ED098420CD0B042F3
:103630000AD0B84208D0604506D0404504D041F2D7
:103640009E1176A004F03AFBA06860B158450AD0FC
:10365000B0F5005F07D0B0F5405F04D041F2A11192
:103660006EA004F02BFB6068504509D040B10228E1
:1036700006D00A2804D041F2A21168A004F01EFB73
:10368000E0680F2804D941F2A31164A004F016FBEE
:10369000D4E90121E368286801F088FB2868816883
:1036A00041F077018BE72868884212D0484510D056
:1036B00090420ED098420CD0B0420AD0B84208D006
:1036C000604506D0404504D041F2CA1153A004F031
:1036D000F5FA6068504509D040B1022806D00A28A2
:1036E00004D041F2CD114DA004F0E8FAE0680F28B3
:1036F00004D941F2CE1149A004F0E0FAE268616811
:10370000286801F065FB5021286831E0286888426C
:1037100012D0484510D090420ED098420CD0B04202
:103720000AD0B84208D0604506D0404504D041F2E6
:10373000DA113AA004F0C2FA6068504509D040B1ED
:10374000022806D00A2804D041F2DD1133A004F08B
:10375000B5FAE0680F2804D941F2DE112FA004F079
:10376000ADFAE2686168286801F043FB60212868CF
:1037700001F026FB012085F83D00002085F83C0083
:10378000CDE62868884212D0484510D090420ED02D
:1037900098420CD0B0420AD0B84208D0604506D05A
:1037A000404504D041F2EA111CA004F087FA606899
:1037B000504509D040B1022806D00A2804D041F271
:1037C000ED1116A004F07AFAE0680F2804D941F24E
:1037D000EE1112A004F072FAE2686168286801F044
:1037E000F7FA40212868C3E72868884212D0484584
:1037F00010D090420ED098420CD0B0420AD0B842BD
:1038000008D0604506D0404504D041F2FD1103A028
:1038100004F054FA21682868AAE700002E2E2F44ED
:103820007269766572732F53544D3332463478780B
:103830005F48414C5F4472697665722F5372632F03
:1038400073746D3332663478785F68616C5F746965
:103850006D2E63000000014000040040000800409D
:10386000000C0040000401400040014000180040EE
:103870000010004000140040004401400048014096
:10388000001C004000200040704770B504460068EE
:1038900001694FF00005C943890715D4C168C943C0
:1038A000890711D4E91E0161012020772068806911
:1038B0008007204602D0FFF7E7FF04E000F098F809
:1038C000204600F096F8257720680169C94349072A
:1038D00017D4C168C943490713D46FF004010161CB
:1038E000022020772068806910F4407F204602D0B3
:1038F000FFF7CAFF04E000F07BF8204600F079F8FB
:10390000257720680169C943090716D4C168C943EE
:10391000090712D46FF008010161042020772068A4
:10392000C0698007204602D0FFF7AEFF04E000F038
:103930005FF8204600F05DF8257720680169C943EB
:10394000C90617D4C168C943C90613D46FF0100162
:103950000161082020772068C06910F4407F20466C
:1039600002D0FFF791FF04E000F042F8204600F09B
:1039700040F8257720680169C943C90708D1C168A3
:10398000C943C90704D1891E0161204600F032F8FD
:1039900020680169C943090609D4C168C9430906F9
:1039A00005D46FF0800101612046FFF771FB2068AC
:1039B0000169C943490609D4C168C943490605D408
:1039C0006FF040010161204600F01EF82068016997
:1039D000C94389060BD4C168C943890607D46FF06F
:1039E000200101612046BDE87040FFF752BB70BD69
:1039F0007047704700680349884201D1FEF726BE30
:103A00007047000000440140704710B5044600684C
:103A1000416994F83920C1F3C011212A0BD151B169
:103A2000416921F080014161206B08B1FEF73BF94B
:103A3000204601F069FC2068416994F83A20C1F3FE
:103A40008011222A0BD151B1416921F0400141611D
:103A5000606B08B1FEF727F9204601F047FC002013
:103A600010BD704770B5026804461068D16853698C
:103A700010F00F0F52D003F0010501F490762E43A1
:103A80005FD0C20705D0CA0503D5E26B42F0010240
:103A9000E263420705D5DA0703D0E26B42F0020287
:103AA000E263820705D5DA0703D0E26B42F0040235
:103AB000E263020707D501F020022A4303D0E26B3C
:103AC00042F00802E263E26B002A33D0800604D59C
:103AD000880602D5204601F020FC20684069E16B91
:103AE000C0F38010090700D428B3204601F0FEFB84
:103AF0002068416949061AD5416921F040014161B8
:103B0000606BA0B11B490165606BFEF713F90028DB
:103B100010D0606B016DBDE870400847830610D57A
:103B20008B060ED52046BDE8704001F0F6BB20465E
:103B3000FFF797FF70BD2046FFF793FF0020E0637B
:103B400070BD030606D50B0604D52046BDE87040BF
:103B500001F00CBD4006F3D54806F1D5D1682046EA
:103B600021F04001D160202184F8391000F032FBAF
:103B700070BD00004D52000870B5040023D0A0694C
:103B80003B4900283B4A3C4B3C4D20681DD08842B5
:103B90000CD090420AD0984208D0A84206D040F2F9
:103BA0004B1137A004F08AF8A06908B3A069B0F5FA
:103BB000807F1DD0B0F5007F1AD0B0F5407F17D0C0
:103BC0004FF4A67111E0012070BD884210D09042E0
:103BD0000ED098420CD03949884209D038498842E1
:103BE00006D0A84204D04FF4A87125A004F066F8CE
:103BF000A06838B1B0F5805F04D04FF4A97120A05F
:103C000004F05CF8E06938B1B0F5004F04D040F240
:103C100053111BA004F052F894F83900002520B984
:103C200084F83850204600F04DF8242084F83900FC
:103C30002068C16821F40051C160204601F0B8FB42
:103C40002068016921F4904101612068416921F0F7
:103C50002A0141612068C16841F40051C160E563F7
:103C6000202084F8390084F83A00002070BD00005C
:103C70000010014000440040004800400014014092
:103C80002E2E2F447269766572732F53544D333242
:103C9000463478785F48414C5F4472697665722F8C
:103CA0005372632F73746D3332663478785F686152
:103CB0006C5F756172742E6300000000004C004060
:103CC000005000402DE9F04F87B0044614216846AB
:103CD000FCF7A8FBF048EF4F1038D4F800C0DFF82D
:103CE000B8B3032102220123002506154FF0080E68
:103CF0004FF040094FF0006ABC454CD1DBF800C0E2
:103D00004CF4002CCBF800C0DBF8007007F400275F
:103D10000597076847F001070760006800F0010099
:103D200005908DE80E00CDE9031E6946DB48FEF7DD
:103D3000C9FADC4FDA483860C7E901A5C7E903567C
:103D40007D61BD61FD613D6238467D62FEF7D4F85C
:103D500008B1FDF732F96763BC63D24FD0486037D2
:103D60003030C7F80890C7E903567D61BD61FD6139
:103D70003D627D62C7E9000A3846FEF7BDF808B12A
:103D8000FDF71BF92763002205213420BC63FEF7F1
:103D900007FD342074E0C44FBC4577D1DBF800C088
:103DA00000254CF4801CCBF800C0DBF8007007F451
:103DB00080170597076847F004070760076807F052
:103DC00004070597076847F0080707600068029333
:103DD00000F0080005904FF48050CDE90002032068
:103DE000CDE9030E9346984677466946AF48FEF7FD
:103DF00069FA0420CDE9000BCDF808800320CDE955
:103E000003076946AA48FEF75DFADFF89882A449DD
:103E100008F1C00840467831C0E90356C8F814508C
:103E2000C8F81850C8F81C505746C8F8205088E801
:103E30008202C8F82450FEF75FF808B1FDF7BDF81C
:103E400097489C4DC4F830803038C8F83840C5E9F0
:103E500000070020A860C5E903066861A861E86161
:103E6000286268622846FEF747F808B1FDF7A5F812
:103E70006563002205213520AC63FEF791FC3520F7
:103E8000FEF75CFC07B0BDE8F08FFFE7824FDFF87C
:103E900028823F1DC44552D1D7F800C04CF0100C09
:103EA000C7F800C03F6807F010070597076847F09C
:103EB00001070760006800F0010005904FF4C06042
:103EC0008DE80D000720CDE9031069467348FEF721
:103ED000F9F9784F794860374FF440383860C7E9CE
:103EE00001A5C7E9035680157D61C7E90650C7E9FA
:103EF00008853846FEF700F808B1FDF75EF86763FD
:103F0000BC636C4F6D48C0377830C7F80890C7E97C
:103F100003567D61BD61C7E907587D62C7E9000AA4
:103F20003846FDF7E9FF08B1FDF747F8276300229F
:103F300005212520BC63FEF733FC2520A0E7DFF830
:103F40008081C44551D1DBF800C04CF4802CCBF803
:103F500000C0DBF8007007F480270597076847F07A
:103F600002070760006800F0020005904FF440600F
:103F70008DE80D000720CDE9031069465148FEF792
:103F8000A1F94748504F18383860C7E901A5C7E97B
:103F9000035680157D61C7E906503D6238467D6253
:103FA000FDF7AAFF08B1FDF708F86763BC63464F49
:103FB0003B4860371830C7F80890C7E903567D6161
:103FC000BD61FD613D627D62C7E9000A3846FDF7CB
:103FD00093FF08B1FCF7F1FF27630022052127209A
:103FE000BC63FEF7DDFB27204AE7DFF8E080C4452D
:103FF0007FF448AFD7F800C04CF0200CC7F800C0E1
:104000003F6807F020070597076847F00407076037
:104010000068CDE9023100F004000590C020CDE930
:104020000002CDF810E069462048FEF74BF9264F14
:104030002248C037183838604FF02068C7E901853A
:10404000C7E903567D61BD61FD613D6238467D6211
:10405000FDF752FF08B1FCF7B0FF6763BC631C4F6C
:104060001648C7E903567D61BD61FD613D62603060
:104070007D6287E801033846FDF73EFF08B1FCF793
:104080009CFF2763002205214720BC63FEF788FBC5
:104090004720F5E6004C0040403802400000024056
:1040A00040600240FC4700200050004000080240F1
:1040B000000C02401C4900200010014040640240F6
:1040C00000480040000402403C4A00200014014027
:1040D0005C4B0020F8B5044690F83A0020283CD10B
:1040E000C1B3BAB394F83800012836D0012084F85F
:1040F0003800A162A2850025E563222084F83A00F9
:10410000636B1748D863636B16481864636B164873
:10411000D864606B134605650846666B21680246E5
:104120003046091DFEF758F8206801684168009183
:1041300084F83850C16841F48071C16020684169D9
:1041400041F0010141612068416941F04001416154
:104150000020F8BDFFE70120FBE70220F9E700009F
:10416000A7520008E35200085D52000838B5094C18
:10417000A0420DD108490948FCF7AEFE002807D03F
:104180002068016841680091C16841F01001C16078
:1041900038BD00003C4700207E4C0020F84D002038
:1041A00038B5094CA0420DD108490948FCF794FEE6
:1041B000002807D02068016841680091C16841F07B
:1041C0001001C16038BD00003C4700206C4C00204D
:1041D000F84D0020704700001CB50CA30129D3E95D
:1041E0000023CDE9002305D0022905D003290CD1F5
:1041F000FE2102E0FC2100E0FD218DF80710D0E94E
:10420000001008236A46FCF777FA1CBDFFFFFFFF8A
:10421000FFFFFF0010B50446C4E900210121FFF7AC
:10422000DBFF0120FEF73CF8204600F04BF8BDE82C
:1042300010400120FEF734B870B50446C0680D4642
:10424000401CE060A168401A00EE100AF8EE400A37
:1042500000EE101A1021B8EE400A80EE801ADFED51
:10426000150A9FED150A84ED041AB5F8010040BA4D
:1042700004F0EFF984ED0B0AE8782979000140EAAF
:1042800011100C21DFED0D0A9FED0D0A04F0E1F98C
:1042900084ED0C0A2979687901F00F0140EA0120C8
:1042A0000C21F3EE020ABBEE020A04F0D2F984ED0F
:1042B0000D0A70BD0000BF420000BFC200003442C2
:1042C000000034C22DE9F04104462DED048B82B08C
:1042D00090ED060A5E4910EE100ADFED5E0A9FEDD2
:1042E0005E1A884202D3B0EE600A06E010EE100AB1
:1042F0005A49884201DBB0EE410A84ED060AD4ED4A
:10430000071A574911EE900ADFED568A9FED569A2B
:10431000884202D3F0EE681A06E011EE900A534983
:10432000884201DBF0EE491AC4ED071AD4ED081AF1
:10433000DFED4F9A9FED4F8AF5EEC01AF1EE10FABD
:1043400002D8F0EE481A06E011EE900A4A49884277
:1043500001DBF0EE691AC4ED081AD4ED091AF5EE86
:10436000C01AF1EE10FA02D8F0EE481A06E011EE8B
:10437000900A4249884201DBF1EE041AC4ED091AA1
:10438000D4ED0A1A3E4911EE900A884202D3FBEEA0
:10439000021A06E011EE900A3A49884201DBF3EE78
:1043A000021AC4ED0A1A102003F089FC074694EDA6
:1043B000070A0C20B0EE491AF0EE680A03F07FFC01
:1043C000064694ED080A0C20B0EE691AF0EE480A91
:1043D00003F075FC054694ED090A0C20B1EE041AB1
:1043E000F0EE480A03F06BFC804694ED0A0A0C20BC
:1043F000B3EE021AFBEE020A03F061FC390A8DF8F3
:1044000000108DF8017031098DF80210310141EA78
:1044100015218DF803108DF804504FEA18118DF80E
:1044200005104FEA081141EA10218DF806108DF8A9
:104430000700A0680823401CA060D4E900106A4669
:10444000FCF75AF902B0BDEC048BBDE8F081000026
:104450000000BFC20000BFC20000BF420000BF4258
:10446000000034C2000034C2000034420000344274
:104470000000FA43000000000000FA430000A040E2
:10448000000090C100009041FEE700002DE9F04FD0
:104490002DED028B81B003F066FC544C009003E0DC
:1044A0000221684603F053FCA07A0328F8D0A34603
:1044B0000028F5D09FED4E8A4E484F49002680EDEA
:1044C000048A80ED128A4D4ADFF83491CE7030466E
:1044D00002EBC003401C90465E700428F8DB8A465D
:1044E0009AF8031000297BD19BF80A10032906D003
:1044F00029B198F801204146012A0FD017E0002485
:104500004FEA0905C4EBC40005EBC00080ED0A8A40
:10451000FFF7D8FE641C042CF4DB1BE04A7A012A66
:1045200005D14A7C012A02D14A7E012A19D08AF893
:104530000360002408EBC40740467978A9B1C4EBB6
:10454000C40109EBC10080ED0A8AFFF7BBFE641CC1
:10455000042CEFDBFCF70CFC0221684603F0F7FBB0
:10456000BEE701228AF80320E3E75CB3022C29D0DE
:10457000B7EE080AC4EBC40209EBC201C4EBC402E3
:1045800081ED0A0A09EBC20597ED010AD5ED0B0A88
:104590001C4A30EE600AB0EEC00A10EE101A9142CA
:1045A00014DA10F83410491CC9B208F83410642920
:1045B0000ED385ED0A8A0120787028460321FFF783
:1045C0000BFEC4E7BFEE080AD4E709E008F8346040
:1045D0002846FFF777FE95ED0B0A87ED010AB6E74F
:1045E00001B0BDEC028BBDE8F08F0000F84D00205B
:1045F00000000000704D002090000020FC4B0020C7
:10460000904C00200AD7A33BD0ED071AD0ED000A4A
:1046100021EEA01A80ED011AD0ED090A90ED052ACD
:1046200041EE820AC0ED030AD0ED0A1A30EEA12A4B
:10463000C0EE821A30EE412AB0EE410AB7EE001AFF
:10464000C0ED061A31EE611A01EE820A61EE200A0F
:1046500080ED020AC0ED040AC0ED050A80ED000AF3
:10466000704710B504462DED028BB0EE608AF0EE77
:10467000408A3021FBF7D6FEC4ED098A84ED0A8A10
:10468000B7EE000A84ED070A84ED0B0ABDEC028B3D
:1046900010BD00000F4810B50D49016006214160B2
:1046A00000214FF400328160C0E90312120142611F
:1046B0000176012242768176C27601774177FDF755
:1046C00033F8002803D0BDE81040FCF776BC10BDDD
:1046D00000640040443F00200F4810B50D490160C0
:1046E0000621416000214FF400328160C0E90312CD
:1046F000120142610176012242768176C17601770C
:104700004177FDF711F8002803D0BDE81040FCF711
:1047100054BC10BD006800406C3F0020314808B513
:10472000016841F400110160016801F40011009179
:10473000016841F4800101600068002200F48000FB
:10474000009005210B20FEF72BF80B20FDF7F6FF5C
:10475000002205210C20FEF723F80C20FDF7EEFFC8
:10476000002205210D20FEF71BF80D20FDF7E6FFC6
:10477000002205210E20FEF713F80E20FDF7DEFFC4
:10478000002205210F20FEF70BF80F20FDF7D6FFC2
:10479000002205212F20FEF703F82F20FDF7CEFF82
:1047A000002205213920FDF7FBFF3920FDF7C6FF68
:1047B000002205213A20FDF7F3FF3A20FDF7BEFF66
:1047C000002205214520FDF7EBFF4520FDF7B6FF50
:1047D000002205214620FDF7E3FFBDE80840462002
:1047E000FDF7ACBF3038024010B58EB01C220B492B
:1047F0006846FBF7FEFD0021684603F0C0FA084C4E
:1048000006491C2260601C3107A8FBF7F2FD00215D
:1048100007A803F0B4FA20600EB010BDE8940008B9
:10482000880000202DE9F04F87B014216846FBF77F
:10483000F9FD46480024016841F004010160016867
:1048400001F004010591016841F0800101600168F7
:1048500001F080010591016841F0010101600168EA
:1048600001F001010591016841F002010160016858
:1048700001F002010591016841F010010160016839
:1048800001F010010591016841F008010160006824
:10489000DFF8BCA000F008004FF48057059000221C
:1048A00039465046FDF796FEDFF8A8B04FF4706821
:1048B000002241465846FDF78DFE4FF40049002284
:1048C00049462548FDF786FE0022C0212348FDF712
:1048D00081FE012502260095CDE90164CDE903465C
:1048E00069461E48FDF7EEFC0097CDE90154694684
:1048F00050460394FDF7E6FCA8030090CDE901645F
:104900000920CDE9034069461448FDF7DBFCCDF8EA
:104910000080CDE90154694658460394FDF7D2FC66
:10492000CDF80090CDE9015469460B480394FDF79A
:10493000C9FCC0200090CDE90154694607480394A2
:10494000FDF7C0FC07B0BDE8F08F00003038024032
:1049500000100240000C024000000240000402402F
:104960000C4810B50A49016053214160002140F212
:10497000F312C0E90212016180218161FEF732FC6D
:10498000002803D0BDE81040FCF717BB10BD0000A5
:10499000002000407C46002010B586B00024164858
:1049A00000940194029403940494124905940160C4
:1049B0005321C0E90114611EC0E903148461FEF7AC
:1049C00011FC08B1FCF7F9FA4FF4805000906946E9
:1049D0000948FEF759FD08B1FCF7EFFA049404A961
:1049E00005480594FEF756FB002801D0FCF7E5FAD0
:1049F00006B010BD000C00403C4600200C4810B52D
:104A00000A4901604FF4E1314160002181600C22CC
:104A1000C160C0E904128161C161FFF7ADF80028EF
:104A200003D0BDE81040FCF7C8BA10BD004C0040F0
:104A3000BC4600200C4810B50A4901604FF4FA2129
:104A40004160002181600C22C160C0E904128161D3
:104A5000C161FFF791F8002803D0BDE81040FCF7D2
:104A6000ACBA10BD00500040FC4600200E4810B506
:104A70000C4901600D4941604FF480518160002173
:104A80004FF48062C0E903120C22C0E90521C16124
:104A9000FFF772F8002803D0BDE81040FCF78DBA8C
:104AA00010BD0000001001403C470020A08601001E
:104AB0000E4810B50C4901600D4941604FF480511A
:104AC000816000214FF48062C0E903120C22C0E92A
:104AD0000521C161FFF750F8002803D0BDE8104060
:104AE000FCF76BBA10BD0000004800407C47002076
:104AF000A08601000C4810B50A4901600B494160CD
:104B0000002181600C22C160C0E904128161C16191
:104B1000FFF732F8002803D0BDE81040FCF74DBA8B
:104B200010BD000000140140BC47002000093D00FA
:104B3000FEE7704780ED050AC0ED060A90ED071A02
:104B400070EE600A80ED081AC0ED070A90ED000AC9
:104B500060EE201AC0ED091A90ED0A0A90ED012AC4
:104B600002EE200A70EEC10A80ED0A0A90ED021AE8
:104B700020EE812A80ED0B2AD0ED030AB1EE601AF7
:104B8000B4EEC10AF1EE10FA02D8B0EE410A06E026
:104B9000B4EEE00AF1EE10FA01DBB0EE600A80ED4F
:104BA0000A0A31EE800A30EE020A80ED0C0AD0EDDE
:104BB000040AB1EE601AB4EEC10AF1EE10FA02D89E
:104BC000B0EE410A06E0B4EEE00AF1EE10FA01DBC5
:104BD000B0EE600A80ED0C0A704780EC050A704761
:104BE00008B503F0C0F800900121684603F0AFF863
:104BF000FAE7000010B5502080F31188BFF34F8F03
:104C0000BFF36F8F04F0B4FA18B104494FF080502D
:104C10000860002080F3118810BD000004ED00E062
:104C200030B593B030216846FBF7FCFB14210CA88B
:104C3000FBF7F8FB19480025016841F0805101603D
:104C4000006800F0805011901548016841F48041DF
:104C500001600068022400F480401190012003905C
:104C600010200490009406940820CDE90750A82055
:104C7000CDE9090404200B906846FDF7B9FF0CA9A3
:104C80000F2081E831004FF4A0500F90E002109007
:104C900005210CA8FDF714FE13B030BD40380240CA
:104CA000007000400548016841F47001016003494B
:104CB0004FF00060803908607047000088ED00E028
:104CC0000148FEF7E2BD0000BC4B00200148FEF7A2
:104CD000DCBD00003C4600200148FEF7D6BD0000C8
:104CE0007C460020F0B50268254C264D264E274F05
:104CF000274B4FF0804CA04209D0604507D0A84216
:104D000005D0B04203D0B84201D0984204D122F07D
:104D1000700E4A6842EA0E02A0421BD0604519D0CC
:104D2000A84217D0B04215D0B84213D0984211D043
:104D3000184DA8420ED0184DA8420BD0174DA842CE
:104D400008D0174DA84205D0164DA84202D0164DE6
:104D5000A84203D122F44075CA682A434D6922F063
:104D600080022A4302608A68C2620A688262A042A4
:104D700001D0984201D10969016301214161F0BD6F
:104D8000000001400004004000080040000C00400A
:104D9000000401400040014000440140004801403F
:104DA00000180040001C00400020004010B584683E
:104DB00042EA032224F47F440A432243826010BD66
:104DC000826822F070020A4342F007018160704756
:104DD00010B5036A046A24F001040462846924F0B3
:104DE000F00444EA021423F00A020A4384610262D6
:104DF00010BD10B5036A23F0100303628369046ACF
:104E000023F4704343EA023224F0A00343EA011181
:104E10008261016210BD0000136852689FED200A94
:104E2000DFED200A132912D0142927D015290DD11E
:104E300001EE103A21EE000A80EE201A00EE102A50
:104E4000B1EE400A80ED021A80ED050A704701EECE
:104E5000903A9FED151A81EE812A62EE001A81EEDA
:104E6000A02A01EE902A80ED032A81EE812A22EE0B
:104E7000000A80EE201A80ED041A704701EE103A05
:104E800021EE001AC1EE201A01EE102A21EE000ACE
:104E900080EE201AC0ED001A80ED011A7047000064
:104EA000DB0F4940000034436F12834110B50446C4
:104EB0002DED028BB0EE408AC0ED0A0A80ED0B1A90
:104EC00080ED048A70EEC10A90ED021A80EE810A2C
:104ED00001F01CFF84ED030A38EE400A044884ED1B
:104EE000050AFFF791FB84ED050ABDEC028B10BDAE
:104EF0001055002080EC030AB7EE000ADFED020A2D
:104F00000248FFF7AEBB00000000C8421055002069
:104F100010B580ED070A90ED050A0446B5EEC00A0B
:104F2000F1EE10FA02DDB0EE401A01E0B1EE401AE7
:104F300011EE100A3F49884201DDDFED3F0AC4ED62
:104F4000060A30EEC00A02F051FCD4ED020AF6EE79
:104F5000001A20EE201A84ED081A94ED070AB5EE27
:104F6000C01AF0EE400A01EE610A41EE210AC4EDDA
:104F70000C0A84ED0D0A94ED002AD4ED011A32EEEC
:104F8000613AF1EE10FA02DDF0EE412A01E0F1EEB5
:104F9000412AB4EEE23AF1EE10FA0AD8B5EEC01AA0
:104FA000F1EE10FA02DD84ED0C2A3FE0C4ED0C1A9C
:104FB0001CE0F4EEC20AF1EE10FA0ADD70EEC20A4D
:104FC000C4ED090A30EE600A84ED0D0A84ED0C2A66
:104FD00010BDB4EEC20AF1EE10FA0ADD30EE420A5C
:104FE00084ED090A30EEC00A84ED0C0A84ED0D2A26
:104FF00010BDF4EEE10AF1EE10FA0AD271EEE00A09
:10500000C4ED090A30EE200A84ED0D0AC4ED0C1A35
:1050100010BDB4EEE10AF1EE10FAF9D231EEC00A99
:1050200084ED090A30EE800A84ED0C0AC4ED0D1AF5
:1050300010BD000021B0323E0000000010B580ED30
:10504000020A0446C0ED030AB0EE410A3548FFF7F4
:10505000DBFA84ED0E0A94ED020AD4ED010A314820
:1050600020EE600A303884ED060A94ED031A61EEF2
:10507000600AC4ED070A30EEC01AD4ED001A30EE13
:10508000200AF6EE000A81EE212A20EE200A84EDA5
:105090000D2AFFF7B9FA84ED0B0A94ED0E1AB5EE5E
:1050A000C01AF1EE10FA02DDF0EE410A01E0F1EE75
:1050B000410A10EE900A1C4988420EDBB5EEC00A88
:1050C000F1EE10FA02DDF0EE400A01E0F1EE400AE6
:1050D00010EE900A1549884204DA9FED150A84ED16
:1050E0000F0A0FE0B1EE400AC0EE010AB0EE410A2D
:1050F000C4ED0F0AF0EE000A01F060FFD4ED0F0AD4
:1051000020EE200A9FED0B1A84ED110AF0EE400A02
:1051100080EE810A01F0FAFDB1EE400A84ED130A37
:1051200010BD0000E05400200AD7233C9A99993E14
:1051300000000000C3F51C4110B52DED028B9FED62
:105140000B8A80EC020AF0EE480AB7EE000A084823
:10515000FFF787FAF0EE480ABDEC028BB7EE000AC3
:105160000348BDE810403030FFF77BBA0000C8426A
:10517000B054002010B5B0EE401A80ED0A1AB0EE1F
:10518000600A80ED0C0AD0ED000AB6EE002AF0EEBF
:10519000411A60EE802AF0EE410AB5EEC00A0446DC
:1051A00042EEC20A42EE821AC0ED080AC0ED091AA8
:1051B000B1EE602AD0ED010AF1EE611AC2EE202AAA
:1051C00081EEA02AC0ED042AF1EE10FA84ED052A42
:1051D00002DDF0EE400A01E0F1EE400A10EE900A26
:1051E0000C49884204DA9FED0C0A84ED100A0DE0A8
:1051F000F1EE410A80EE801AF0EE000A84ED101AFA
:1052000001F0DCFED4ED100A20EE200A84ED120A33
:1052100010BD00000AD7233C0000000010B5044870
:10522000FEF720FCBDE81040014800F009BA00007C
:10523000BC46002010B50448FEF714FCBDE8104041
:10524000014800F0FDB90000FC46002010B5806B5D
:105250000021C185C184FEF704FC10BD70B5846BCC
:105260002068406994F83910C0F3C0100025212946
:1052700004D118B1E584204600F046F82068406962
:1052800094F83A10C0F38010222904D118B1E585B2
:10529000204600F02BF8E06B40F01000E063204661
:1052A000FEF7DFFB70BD10B50146806B0968096829
:1052B000C90513D40021C1850168CA6822F480722F
:1052C000CA6001684A6922F001024A6101684A69BC
:1052D00022F040024A61202180F83A10FEF746FF92
:1052E00010BD10B5806BFEF75BFF10BD0168CA688A
:1052F00022F49072CA6001684A6922F001024A6190
:10530000202180F83A1070470168CA6822F0C00274
:10531000CA60202180F83910704710B590F83A1013
:10532000222901D0022010BD8168B1F5805F11D023
:105330000169002901681FD0496801F07F03816A73
:105340004A1C82620B70C18D491E0904090CC1857B
:1053500018D02BE00269816A002A0268526805D0E1
:10536000D2B20A80816A491C8162ECE7C2F308026A
:105370000A80816A891CF7E74A68816A4B1C83624C
:105380000A70E0E70168CA6822F02002CA6001687A
:10539000CA6822F48072CA6001684A6922F0010278
:1053A0004A61202180F83A10FEF7E0FE002010BD8F
:1053B0002DE9F041044640685A49884204D940F634
:1053C000FB3159A002F07AFCE06838B1B0F5005F1B
:1053D00004D040F6FC3154A002F070FC206950B1BA
:1053E000B0F5806F07D0B0F5C06F04D040F6FD3146
:1053F0004DA002F063FC60694FF6F371084200D1E2
:1054000020B940F6FE3148A002F058FC206801693E
:10541000E26821F44051114301612169A068E26909
:1054200008436169114308432168CA6849F20C6363
:105430009A430243CA6020684169A26921F440711D
:1054400011434161E069192764253226B0F5004F08
:105450004449454A20684FF0000806D0904201D0E8
:10546000884236D1FDF782FB35E0904201D0884278
:1054700002D1FDF77BFB01E0FDF768FB61684A188C
:10548000A0FB070148EB0803FAF782FF0146B0FBD7
:10549000F5F00201B1FBF5F06FF01803584301EB92
:1054A000800006EBC000B0FBF5F000F0F80002EB66
:1054B0004002B1FBF5F0584301EB800006EBC00061
:1054C000B0FBF5F000F00700216810448860BDE8EB
:1054D000F081FDF73BFB61688B0F8A00A0FB0701A1
:1054E000FAF756FF0146B0FBF5F06FF01802504393
:1054F00001EB800006EB0010B0FBF5F000F0F002CD
:10550000B1FBF5F002EB0012B1FBF5F06FF0180300
:10551000584301EB800006EB0010B0FBF5F000F003
:105520000F00D1E7A037A0002E2E2F4472697665B8
:1055300072732F53544D3332463478785F48414C60
:105540005F4472697665722F5372632F73746D3383
:1055500032663478785F68616C5F756172742E634F
:1055600000000000001401400010014090F83910C4
:10557000212901D0022070478168B1F5805F016A5E
:105580000BD04A1C0262026809785160C18C491E26
:105590000904090CC1840ED017E009880268C1F320
:1055A0000801516001690029016A02D0491C0162A9
:1055B000ECE7891CFBE70168CA6822F08002CA6038
:1055C0000068C16841F04001C160002070470000E0
:1055D00010B50448FEF746FABDE81040014800F057
:1055E0002FB800003C47002010B50448FEF73AFAF7
:1055F000BDE81040014800F023B800007C470020BF
:1056000010B50448FEF72EFABDE81040014800F03E
:1056100017B80000BC470020074882B00068016846
:1056200041680091C16841F01001C1602422034922
:10563000014802B0FEF74EBD3C4700206C4C0020F4
:1056400038B5044600680168C943C90614D4016826
:10565000406800902046FEF7D8F9084884420BD1F4
:105660000068C16821F01001C1602046BDE83840E3
:1056700024220349FEF72EBD38BD00003C47002020
:105680006C4C0020FEE7000070B504462DED068B43
:1056900082B0F0EE40AAB0EE608AC0ED08AAF0EE4B
:1056A000628AB0EE429AB0EE61AAF0EE419A80EDC5
:1056B0000B8AFAF7E7FDD4ED010A20EE200A84ED0B
:1056C0000C0AB0EE6A0AFAF719FED4ED010A20EED0
:1056D000200A84ED0D0AB0EE480AFAF7D3FDD4EDA6
:1056E000050A94ED041A41EE000AB0EE480AC4ED32
:1056F0000E0AFAF703FED4ED040A20EE200A84ED28
:105700000F0A94ED0E0AD4ED0C0A30EE600AF0EEAA
:10571000000A01F053FCB0EE408A94ED0F0AD4ED7C
:105720000D0A30EE600AF0EE000A01F047FC38EE98
:10573000000A02F03DF884ED140A94ED0E0AD4ED4F
:105740000C0AB0EE008A30EE601A94ED020A60EEA8
:10575000080A21EE201A84ED151A94ED0F1AD4EDE3
:105760000D1A31EE611A61EE200AC4ED160AF0EE50
:10577000000A01F023FCF0EE40AA94ED140AF0EECA
:10578000000A01F01BFC7AEE80AA94ED030AF0EE09
:10579000000A01F013FC3AEEC00AF0EE000A84EDB4
:1057A000170A94ED150A01F009FCF0EE40AA94EDF9
:1057B000160AF0EE000A01F001FC7AEE80AA94EDE0
:1057C000170AF0EE000A01F0F9FB3AEEC00A01F008
:1057D000EFFFD4ED160A94ED171A30EE200AD4ED3F
:1057E000150A70EE810A01F03BF920EE080A84EDFB
:1057F000090AFAF747FDD4ED0C0A94ED021A41EEBE
:10580000000AC4ED100A94ED090AFAF777FD94ED49
:105810000D3AD4ED020A00EE803A84ED113A94ED8F
:10582000100AD4ED0E0A70EE600A94ED0F0A33EE02
:10583000400A01F015F984ED0A0A94ED100AD4ED3E
:10584000120A30EE600AF0EE000A01F0B7FBB0EE8B
:10585000408A94ED110AD4ED130A30EE600AF0EE9E
:10586000000A01F0ABFB38EE000A01F0A1FF84ED65
:10587000060A94ED100AD4ED120A94ED131A70EE94
:10588000600A94ED110A30EE410A01F0E9F884ED66
:10589000070AC4ED189A84ED19AAFAF72FFDD4ED82
:1058A000010A20EE208A94ED0A0AFAF727FD28EE75
:1058B000008A94ED080AD4ED090A30EE600AFAF77E
:1058C0001DFD28EE008A94ED070AFAF7DBFCD4ED03
:1058D000040A60EE209A94ED090AFAF70FFD69EECA
:1058E000809A94ED0A0AD4ED0B0A30EE600AFAF7BA
:1058F00005FD09EEC08A94ED090AD4ED0A0A30EEDE
:10590000600AFAF7FBFCC8EE000AC4ED1C0A94ED2D
:10591000070AFAF7B7FCD4ED010A20EE208A94EDCD
:105920000A0AFAF7EBFC28EE008A94ED080AD4ED97
:10593000090A30EE600AFAF7E1FC28EE008A94EDDD
:10594000070AFAF7DBFCD4ED040A60EE209A94ED26
:10595000090AFAF7D3FC69EE809A94ED0A0AD4EDAD
:105960000B0A30EE600AFAF7C9FC09EE808A94ED62
:10597000090AD4ED0A0A30EE600AFAF7BFFCC8EE55
:10598000000AC4ED1D0A94ED070AFAF7B7FCD4ED3E
:10599000010AF1EE600A20EE208A94ED0A0AFAF775
:1059A00071FC28EE008A94ED080AD4ED090A30EE65
:1059B000600AFAF7A3FC28EE008A94ED070AFAF7CA
:1059C00061FCD4ED040A60EE209A94ED090AFAF71E
:1059D00059FC69EE809A94ED0A0AD4ED0B0A30EE78
:1059E000600AFAF78BFC09EE808A94ED090AD4ED7F
:1059F0000A0A30EE600AFAF781FCC8EE000AC4ED2C
:105A00001E0A94ED070AFAF73DFCD4ED010AF1EE07
:105A1000600A20EE208A94ED0A0AFAF733FC28EE99
:105A2000008A94ED080AD4ED090A30EE600AFAF70C
:105A300065FC28EE008A94ED070AFAF75FFCD4EDC6
:105A4000040A60EE209A94ED090AFAF71BFC69EE4D
:105A5000809A94ED0A0AD4ED0B0A30EE600AFAF748
:105A60004DFC09EEC08A94ED090AD4ED0A0A30EE25
:105A7000600AFAF743FCC8EE000A02260125334605
:105A800004F1680204F1600104F17000C4ED1F0A22
:105A9000CDE9006502F0C6F8D4ED060ABFEE001AA3
:105AA00081EE200AD4ED1A0A20EE200A84ED1A0AAB
:105AB00094ED1B0AD4ED200A70EE600A9FED431AA4
:105AC000C0EE811AC4ED211A84ED200A84ED229AD9
:105AD000C4ED238A94ED070AD4ED090A30EE600A7A
